{
  "_format": "hh-sol-artifact-1",
  "contractName": "Generic",
  "sourceName": "src/Generic.sol",
  "abi": [
    {
      "inputs": [
        {
          "internalType": "uint256",
          "name": "entityId",
          "type": "uint256"
        },
        {
          "internalType": "string",
          "name": "ipfsHash",
          "type": "string"
        },
        {
          "internalType": "string",
          "name": "baseURI",
          "type": "string"
        }
      ],
      "stateMutability": "nonpayable",
      "type": "constructor"
    },
    {
      "inputs": [],
      "name": "AccessControlBadConfirmation",
      "type": "error"
    },
    {
      "inputs": [
        {
          "internalType": "address",
          "name": "account",
          "type": "address"
        },
        {
          "internalType": "bytes32",
          "name": "neededRole",
          "type": "bytes32"
        }
      ],
      "name": "AccessControlUnauthorizedAccount",
      "type": "error"
    },
    {
      "anonymous": false,
      "inputs": [
        {
          "indexed": true,
          "internalType": "bytes32",
          "name": "role",
          "type": "bytes32"
        },
        {
          "indexed": true,
          "internalType": "bytes32",
          "name": "previousAdminRole",
          "type": "bytes32"
        },
        {
          "indexed": true,
          "internalType": "bytes32",
          "name": "newAdminRole",
          "type": "bytes32"
        }
      ],
      "name": "RoleAdminChanged",
      "type": "event"
    },
    {
      "anonymous": false,
      "inputs": [
        {
          "indexed": true,
          "internalType": "bytes32",
          "name": "role",
          "type": "bytes32"
        },
        {
          "indexed": true,
          "internalType": "address",
          "name": "account",
          "type": "address"
        },
        {
          "indexed": true,
          "internalType": "address",
          "name": "sender",
          "type": "address"
        }
      ],
      "name": "RoleGranted",
      "type": "event"
    },
    {
      "anonymous": false,
      "inputs": [
        {
          "indexed": true,
          "internalType": "bytes32",
          "name": "role",
          "type": "bytes32"
        },
        {
          "indexed": true,
          "internalType": "address",
          "name": "account",
          "type": "address"
        },
        {
          "indexed": true,
          "internalType": "address",
          "name": "sender",
          "type": "address"
        }
      ],
      "name": "RoleRevoked",
      "type": "event"
    },
    {
      "anonymous": false,
      "inputs": [
        {
          "indexed": false,
          "internalType": "address",
          "name": "sender",
          "type": "address"
        },
        {
          "indexed": false,
          "internalType": "bytes32",
          "name": "fromState",
          "type": "bytes32"
        },
        {
          "indexed": false,
          "internalType": "bytes32",
          "name": "toState",
          "type": "bytes32"
        }
      ],
      "name": "Transition",
      "type": "event"
    },
    {
      "inputs": [],
      "name": "DEFAULT_ADMIN_ROLE",
      "outputs": [
        {
          "internalType": "bytes32",
          "name": "",
          "type": "bytes32"
        }
      ],
      "stateMutability": "view",
      "type": "function"
    },
    {
      "inputs": [],
      "name": "ROLE_ADMIN",
      "outputs": [
        {
          "internalType": "bytes32",
          "name": "",
          "type": "bytes32"
        }
      ],
      "stateMutability": "view",
      "type": "function"
    },
    {
      "inputs": [],
      "name": "ROLE_FOUR",
      "outputs": [
        {
          "internalType": "bytes32",
          "name": "",
          "type": "bytes32"
        }
      ],
      "stateMutability": "view",
      "type": "function"
    },
    {
      "inputs": [],
      "name": "ROLE_MANUFACTURER",
      "outputs": [
        {
          "internalType": "bytes32",
          "name": "",
          "type": "bytes32"
        }
      ],
      "stateMutability": "view",
      "type": "function"
    },
    {
      "inputs": [],
      "name": "ROLE_ONE",
      "outputs": [
        {
          "internalType": "bytes32",
          "name": "",
          "type": "bytes32"
        }
      ],
      "stateMutability": "view",
      "type": "function"
    },
    {
      "inputs": [],
      "name": "ROLE_THREE",
      "outputs": [
        {
          "internalType": "bytes32",
          "name": "",
          "type": "bytes32"
        }
      ],
      "stateMutability": "view",
      "type": "function"
    },
    {
      "inputs": [],
      "name": "ROLE_TWO",
      "outputs": [
        {
          "internalType": "bytes32",
          "name": "",
          "type": "bytes32"
        }
      ],
      "stateMutability": "view",
      "type": "function"
    },
    {
      "inputs": [],
      "name": "STATE_FIVE",
      "outputs": [
        {
          "internalType": "bytes32",
          "name": "",
          "type": "bytes32"
        }
      ],
      "stateMutability": "view",
      "type": "function"
    },
    {
      "inputs": [],
      "name": "STATE_FOUR",
      "outputs": [
        {
          "internalType": "bytes32",
          "name": "",
          "type": "bytes32"
        }
      ],
      "stateMutability": "view",
      "type": "function"
    },
    {
      "inputs": [],
      "name": "STATE_ONE",
      "outputs": [
        {
          "internalType": "bytes32",
          "name": "",
          "type": "bytes32"
        }
      ],
      "stateMutability": "view",
      "type": "function"
    },
    {
      "inputs": [],
      "name": "STATE_THREE",
      "outputs": [
        {
          "internalType": "bytes32",
          "name": "",
          "type": "bytes32"
        }
      ],
      "stateMutability": "view",
      "type": "function"
    },
    {
      "inputs": [],
      "name": "STATE_TWO",
      "outputs": [
        {
          "internalType": "bytes32",
          "name": "",
          "type": "bytes32"
        }
      ],
      "stateMutability": "view",
      "type": "function"
    },
    {
      "inputs": [
        {
          "internalType": "uint256",
          "name": "",
          "type": "uint256"
        }
      ],
      "name": "_roles",
      "outputs": [
        {
          "internalType": "bytes32",
          "name": "",
          "type": "bytes32"
        }
      ],
      "stateMutability": "view",
      "type": "function"
    },
    {
      "inputs": [
        {
          "internalType": "bytes32",
          "name": "state",
          "type": "bytes32"
        },
        {
          "internalType": "bytes4",
          "name": "allowedFunction",
          "type": "bytes4"
        }
      ],
      "name": "addAllowedFunctionForState",
      "outputs": [],
      "stateMutability": "nonpayable",
      "type": "function"
    },
    {
      "inputs": [
        {
          "internalType": "bytes32",
          "name": "state",
          "type": "bytes32"
        },
        {
          "internalType": "bytes32",
          "name": "nextState",
          "type": "bytes32"
        }
      ],
      "name": "addNextStateForState",
      "outputs": [],
      "stateMutability": "nonpayable",
      "type": "function"
    },
    {
      "inputs": [
        {
          "internalType": "bytes32",
          "name": "state",
          "type": "bytes32"
        },
        {
          "internalType": "bytes32",
          "name": "role",
          "type": "bytes32"
        },
        {
          "internalType": "address",
          "name": "account",
          "type": "address"
        }
      ],
      "name": "addRoleForState",
      "outputs": [],
      "stateMutability": "nonpayable",
      "type": "function"
    },
    {
      "inputs": [
        {
          "internalType": "bytes32",
          "name": "role",
          "type": "bytes32"
        }
      ],
      "name": "checkAllowedRoles",
      "outputs": [
        {
          "internalType": "bool",
          "name": "",
          "type": "bool"
        }
      ],
      "stateMutability": "view",
      "type": "function"
    },
    {
      "inputs": [
        {
          "internalType": "uint256",
          "name": "entityId",
          "type": "uint256"
        }
      ],
      "name": "entityURI",
      "outputs": [
        {
          "internalType": "string",
          "name": "",
          "type": "string"
        }
      ],
      "stateMutability": "view",
      "type": "function"
    },
    {
      "inputs": [],
      "name": "getAllStates",
      "outputs": [
        {
          "internalType": "bytes32[]",
          "name": "allStates",
          "type": "bytes32[]"
        }
      ],
      "stateMutability": "view",
      "type": "function"
    },
    {
      "inputs": [],
      "name": "getCurrentState",
      "outputs": [
        {
          "internalType": "bytes32",
          "name": "state",
          "type": "bytes32"
        }
      ],
      "stateMutability": "view",
      "type": "function"
    },
    {
      "inputs": [
        {
          "internalType": "uint256",
          "name": "index",
          "type": "uint256"
        }
      ],
      "name": "getHistory",
      "outputs": [
        {
          "internalType": "bytes32",
          "name": "fromState",
          "type": "bytes32"
        },
        {
          "internalType": "bytes32",
          "name": "toState",
          "type": "bytes32"
        },
        {
          "internalType": "address",
          "name": "actor",
          "type": "address"
        },
        {
          "internalType": "uint256",
          "name": "timestamp",
          "type": "uint256"
        }
      ],
      "stateMutability": "view",
      "type": "function"
    },
    {
      "inputs": [],
      "name": "getHistoryLength",
      "outputs": [
        {
          "internalType": "uint256",
          "name": "",
          "type": "uint256"
        }
      ],
      "stateMutability": "view",
      "type": "function"
    },
    {
      "inputs": [],
      "name": "getNextStates",
      "outputs": [
        {
          "internalType": "bytes32[]",
          "name": "nextStates",
          "type": "bytes32[]"
        }
      ],
      "stateMutability": "view",
      "type": "function"
    },
    {
      "inputs": [
        {
          "internalType": "bytes32",
          "name": "role",
          "type": "bytes32"
        }
      ],
      "name": "getRoleAdmin",
      "outputs": [
        {
          "internalType": "bytes32",
          "name": "",
          "type": "bytes32"
        }
      ],
      "stateMutability": "view",
      "type": "function"
    },
    {
      "inputs": [],
      "name": "getRoles",
      "outputs": [
        {
          "internalType": "bytes32[]",
          "name": "",
          "type": "bytes32[]"
        }
      ],
      "stateMutability": "view",
      "type": "function"
    },
    {
      "inputs": [
        {
          "internalType": "bytes32",
          "name": "state",
          "type": "bytes32"
        }
      ],
      "name": "getState",
      "outputs": [
        {
          "internalType": "bytes32",
          "name": "name",
          "type": "bytes32"
        },
        {
          "internalType": "bytes32[]",
          "name": "nextStates",
          "type": "bytes32[]"
        },
        {
          "internalType": "bytes32[]",
          "name": "allowedRoles",
          "type": "bytes32[]"
        },
        {
          "internalType": "bytes4[]",
          "name": "allowedFunctions",
          "type": "bytes4[]"
        },
        {
          "internalType": "bytes4",
          "name": "preFunction",
          "type": "bytes4"
        }
      ],
      "stateMutability": "view",
      "type": "function"
    },
    {
      "inputs": [
        {
          "internalType": "bytes32",
          "name": "role",
          "type": "bytes32"
        },
        {
          "internalType": "address",
          "name": "account",
          "type": "address"
        }
      ],
      "name": "grantRole",
      "outputs": [],
      "stateMutability": "nonpayable",
      "type": "function"
    },
    {
      "inputs": [
        {
          "internalType": "bytes32",
          "name": "roleName",
          "type": "bytes32"
        },
        {
          "internalType": "address",
          "name": "account",
          "type": "address"
        }
      ],
      "name": "grantRoleToAccount",
      "outputs": [],
      "stateMutability": "nonpayable",
      "type": "function"
    },
    {
      "inputs": [
        {
          "internalType": "bytes32",
          "name": "role",
          "type": "bytes32"
        },
        {
          "internalType": "address",
          "name": "account",
          "type": "address"
        }
      ],
      "name": "hasRole",
      "outputs": [
        {
          "internalType": "bool",
          "name": "",
          "type": "bool"
        }
      ],
      "stateMutability": "view",
      "type": "function"
    },
    {
      "inputs": [
        {
          "internalType": "uint256",
          "name": "",
          "type": "uint256"
        }
      ],
      "name": "history",
      "outputs": [
        {
          "internalType": "bytes32",
          "name": "fromState",
          "type": "bytes32"
        },
        {
          "internalType": "bytes32",
          "name": "toState",
          "type": "bytes32"
        },
        {
          "internalType": "address",
          "name": "actor",
          "type": "address"
        },
        {
          "internalType": "uint256",
          "name": "timestamp",
          "type": "uint256"
        }
      ],
      "stateMutability": "view",
      "type": "function"
    },
    {
      "inputs": [
        {
          "internalType": "bytes32",
          "name": "role",
          "type": "bytes32"
        },
        {
          "internalType": "address",
          "name": "callerConfirmation",
          "type": "address"
        }
      ],
      "name": "renounceRole",
      "outputs": [],
      "stateMutability": "nonpayable",
      "type": "function"
    },
    {
      "inputs": [
        {
          "internalType": "bytes32",
          "name": "role",
          "type": "bytes32"
        },
        {
          "internalType": "address",
          "name": "account",
          "type": "address"
        }
      ],
      "name": "revokeRole",
      "outputs": [],
      "stateMutability": "nonpayable",
      "type": "function"
    },
    {
      "inputs": [
        {
          "internalType": "bytes4",
          "name": "interfaceId",
          "type": "bytes4"
        }
      ],
      "name": "supportsInterface",
      "outputs": [
        {
          "internalType": "bool",
          "name": "",
          "type": "bool"
        }
      ],
      "stateMutability": "view",
      "type": "function"
    },
    {
      "inputs": [
        {
          "internalType": "bytes32",
          "name": "toState",
          "type": "bytes32"
        },
        {
          "internalType": "bytes32",
          "name": "role",
          "type": "bytes32"
        }
      ],
      "name": "transitionState",
      "outputs": [],
      "stateMutability": "nonpayable",
      "type": "function"
    }
  ],
  "bytecode": "0x608060405260405180602001604052806000815250600a908162000024919062000d17565b503480156200003257600080fd5b506040516200408a3803806200408a833981810160405281019062000058919062000f93565b60003390506040518060c00160405280600a60001b8152602001600b60001b8152602001600c60001b8152602001600d60001b8152602001600e60001b8152602001600f60001b815250600c906006620000b492919062000a2c565b50620000ca6000801b826200011360201b60201c565b50620000dc816200021660201b60201c565b8360098190555081600a9081620000f4919062000d17565b506200010960095484620003f260201b60201c565b505050506200152d565b60006200012783836200046c60201b60201c565b6200020b57600160008085815260200190815260200160002060000160008473ffffffffffffffffffffffffffffffffffffffff1673ffffffffffffffffffffffffffffffffffffffff16815260200190815260200160002060006101000a81548160ff021916908315150217905550620001a7620004d660201b60201c565b73ffffffffffffffffffffffffffffffffffffffff168273ffffffffffffffffffffffffffffffffffffffff16847f2f8788117e7eff1d82e926ec794901d17c78024a50270940304540a733656f0d60405160405180910390a46001905062000210565b600090505b92915050565b6200022b600160001b620004de60201b60201c565b62000240600260001b620004de60201b60201c565b62000255600360001b620004de60201b60201c565b6200026a600460001b620004de60201b60201c565b6200027f600560001b620004de60201b60201c565b62000299600160001b600260001b620005a060201b60201c565b620002b4600160001b600a60001b836200074760201b60201c565b620002cf600160001b600c60001b836200074760201b60201c565b620002ea600160001b600b60001b836200074760201b60201c565b62000304600260001b600360001b620005a060201b60201c565b6200031f600260001b600a60001b836200074760201b60201c565b6200033a600260001b600d60001b836200074760201b60201c565b62000354600360001b600460001b620005a060201b60201c565b6200036f600360001b600a60001b836200074760201b60201c565b6200038a600360001b600e60001b836200074760201b60201c565b620003a4600460001b600560001b620005a060201b60201c565b620003bf600460001b600a60001b836200074760201b60201c565b620003da600460001b600f60001b836200074760201b60201c565b620003ef600160001b6200091560201b60201c565b50565b620004038262000a0f60201b60201c565b62000445576040517f08c379a00000000000000000000000000000000000000000000000000000000081526004016200043c90620010b4565b60405180910390fd5b80600b6000848152602001908152602001600020908162000467919062000d17565b505050565b600080600084815260200190815260200160002060000160008373ffffffffffffffffffffffffffffffffffffffff1673ffffffffffffffffffffffffffffffffffffffff16815260200190815260200160002060009054906101000a900460ff16905092915050565b600033905090565b6002600082815260200190815260200160002060000160009054906101000a900460ff161562000545576040517f08c379a00000000000000000000000000000000000000000000000000000000081526004016200053c906200114c565b60405180910390fd5b60016002600083815260200190815260200160002060000160006101000a81548160ff021916908315150217905550600381908060018154018082558091505060019003906000526020600020016000909190919091505550565b816002600082815260200190815260200160002060000160009054906101000a900460ff1662000607576040517f08c379a0000000000000000000000000000000000000000000000000000000008152600401620005fe90620011e4565b60405180910390fd5b816002600082815260200190815260200160002060000160009054906101000a900460ff166200066e576040517f08c379a00000000000000000000000000000000000000000000000000000000081526004016200066590620011e4565b60405180910390fd5b33620006846000801b826200046c60201b60201c565b620006c6576040517f08c379a0000000000000000000000000000000000000000000000000000000008152600401620006bd9062001256565b60405180910390fd5b60026000868152602001908152602001600020600601849080600181540180825580915050600190039060005260206000200160009091909190915055600160086000878152602001908152602001600020600086815260200190815260200160002060006101000a81548160ff0219169083151502179055505050505050565b826002600082815260200190815260200160002060000160009054906101000a900460ff16620007ae576040517f08c379a0000000000000000000000000000000000000000000000000000000008152600401620007a590620011e4565b60405180910390fd5b33620007c46000801b826200046c60201b60201c565b62000806576040517f08c379a0000000000000000000000000000000000000000000000000000000008152600401620007fd9062001256565b60405180910390fd5b60026000868152602001908152602001600020600201600085815260200190815260200160002060009054906101000a900460ff16156200087e576040517f08c379a00000000000000000000000000000000000000000000000000000000081526004016200087590620012ee565b60405180910390fd5b600160026000878152602001908152602001600020600201600086815260200190815260200160002060006101000a81548160ff021916908315150217905550600260008681526020019081526020016000206003018490806001815401808255809150506001900390600052602060002001600090919091909150556200090d84846200011360201b60201c565b505050505050565b6002600082815260200190815260200160002060000160009054906101000a900460ff166200097b576040517f08c379a0000000000000000000000000000000000000000000000000000000008152600401620009729062001386565b60405180910390fd5b6000801b60045414620009c5576040517f08c379a0000000000000000000000000000000000000000000000000000000008152600401620009bc906200141e565b60405180910390fd5b806004819055507f483a31c379a4b707332853662276a3424ec44f0ccbfc20d78fd9d143694f766933600060045460405162000a0493929190620014f0565b60405180910390a150565b6000806009541415801562000a25575060095482145b9050919050565b82805482825590600052602060002090810192821562000a6b579160200282015b8281111562000a6a57825182559160200191906001019062000a4d565b5b50905062000a7a919062000a7e565b5090565b5b8082111562000a9957600081600090555060010162000a7f565b5090565b600081519050919050565b7f4e487b7100000000000000000000000000000000000000000000000000000000600052604160045260246000fd5b7f4e487b7100000000000000000000000000000000000000000000000000000000600052602260045260246000fd5b6000600282049050600182168062000b1f57607f821691505b60208210810362000b355762000b3462000ad7565b5b50919050565b60008190508160005260206000209050919050565b60006020601f8301049050919050565b600082821b905092915050565b60006008830262000b9f7fffffffffffffffffffffffffffffffffffffffffffffffffffffffffffffffff8262000b60565b62000bab868362000b60565b95508019841693508086168417925050509392505050565b6000819050919050565b6000819050919050565b600062000bf862000bf262000bec8462000bc3565b62000bcd565b62000bc3565b9050919050565b6000819050919050565b62000c148362000bd7565b62000c2c62000c238262000bff565b84845462000b6d565b825550505050565b600090565b62000c4362000c34565b62000c5081848462000c09565b505050565b5b8181101562000c785762000c6c60008262000c39565b60018101905062000c56565b5050565b601f82111562000cc75762000c918162000b3b565b62000c9c8462000b50565b8101602085101562000cac578190505b62000cc462000cbb8562000b50565b83018262000c55565b50505b505050565b600082821c905092915050565b600062000cec6000198460080262000ccc565b1980831691505092915050565b600062000d07838362000cd9565b9150826002028217905092915050565b62000d228262000a9d565b67ffffffffffffffff81111562000d3e5762000d3d62000aa8565b5b62000d4a825462000b06565b62000d5782828562000c7c565b600060209050601f83116001811462000d8f576000841562000d7a578287015190505b62000d86858262000cf9565b86555062000df6565b601f19841662000d9f8662000b3b565b60005b8281101562000dc95784890151825560018201915060208501945060208101905062000da2565b8683101562000de9578489015162000de5601f89168262000cd9565b8355505b6001600288020188555050505b505050505050565b6000604051905090565b600080fd5b600080fd5b62000e1d8162000bc3565b811462000e2957600080fd5b50565b60008151905062000e3d8162000e12565b92915050565b600080fd5b600080fd5b6000601f19601f8301169050919050565b62000e698262000e4d565b810181811067ffffffffffffffff8211171562000e8b5762000e8a62000aa8565b5b80604052505050565b600062000ea062000dfe565b905062000eae828262000e5e565b919050565b600067ffffffffffffffff82111562000ed15762000ed062000aa8565b5b62000edc8262000e4d565b9050602081019050919050565b60005b8381101562000f0957808201518184015260208101905062000eec565b60008484015250505050565b600062000f2c62000f268462000eb3565b62000e94565b90508281526020810184848401111562000f4b5762000f4a62000e48565b5b62000f5884828562000ee9565b509392505050565b600082601f83011262000f785762000f7762000e43565b5b815162000f8a84826020860162000f15565b91505092915050565b60008060006060848603121562000faf5762000fae62000e08565b5b600062000fbf8682870162000e2c565b935050602084015167ffffffffffffffff81111562000fe35762000fe262000e0d565b5b62000ff18682870162000f60565b925050604084015167ffffffffffffffff81111562001015576200101462000e0d565b5b620010238682870162000f60565b9150509250925092565b600082825260208201905092915050565b7f53746174654d616368696e654d657461446174613a2055524920736574206f6660008201527f206e6f6e6578697374656e742000000000000000000000000000000000000000602082015250565b60006200109c602d836200102d565b9150620010a9826200103e565b604082019050919050565b60006020820190508181036000830152620010cf816200108d565b9050919050565b7f746869732073746174652068617320616c7265616479206265656e206372656160008201527f7465640000000000000000000000000000000000000000000000000000000000602082015250565b6000620011346023836200102d565b91506200114182620010d6565b604082019050919050565b60006020820190508181036000830152620011678162001125565b9050919050565b7f74686520737461746520686173206e6f74206265656e2063726561746564207960008201527f6574000000000000000000000000000000000000000000000000000000000000602082015250565b6000620011cc6022836200102d565b9150620011d9826200116e565b604082019050919050565b60006020820190508181036000830152620011ff81620011bd565b9050919050565b7f43616c6c6572206973206e6f7420616e2061646d696e00000000000000000000600082015250565b60006200123e6016836200102d565b91506200124b8262001206565b602082019050919050565b6000602082019050818103600083015262001271816200122f565b9050919050565b7f74686520726f6c6520686173206265656e20616c72656164792061646465642060008201527f6174207468697320737461746500000000000000000000000000000000000000602082015250565b6000620012d6602d836200102d565b9150620012e38262001278565b604082019050919050565b600060208201905081810360008301526200130981620012c7565b9050919050565b7f74686520696e697469616c20737461746520686173206e6f74206265656e206360008201527f7265617465642079657400000000000000000000000000000000000000000000602082015250565b60006200136e602a836200102d565b91506200137b8262001310565b604082019050919050565b60006020820190508181036000830152620013a1816200135f565b9050919050565b7f43757272656e742073746174652068617320616c7265616479206265656e207360008201527f65742c20796f752063616e6e6f74207265736574206974000000000000000000602082015250565b6000620014066037836200102d565b91506200141382620013a8565b604082019050919050565b600060208201905081810360008301526200143981620013f7565b9050919050565b600073ffffffffffffffffffffffffffffffffffffffff82169050919050565b60006200146d8262001440565b9050919050565b6200147f8162001460565b82525050565b6000819050919050565b6000819050919050565b60008160001b9050919050565b6000620014c7620014c1620014bb8462001485565b62001499565b6200148f565b9050919050565b620014d981620014a6565b82525050565b620014ea816200148f565b82525050565b600060608201905062001507600083018662001474565b620015166020830185620014ce565b620015256040830184620014df565b949350505050565b612b4d806200153d6000396000f3fe608060405234801561001057600080fd5b50600436106102065760003560e01c8063710613981161011a578063c8691b2a116100ad578063e9ac2d8b1161007c578063e9ac2d8b146105ff578063ed96b08d1461061d578063f2dbd5e81461063b578063f59957111461066b578063fa09964f1461068757610206565b8063c8691b2a14610576578063d391014b146105a9578063d547741f146105c7578063e3513ac4146105e357610206565b8063a4ddb071116100e9578063a4ddb071146104e9578063a7a38f0b14610507578063ac65527f1461053a578063c6ef8f2f1461055857610206565b8063710613981461045f57806391d148541461047d578063a217fddf146104ad578063a2f50784146104cb57610206565b80632f2ff15d1161019d578063390cf6131161016c578063390cf613146103cb5780633bb9ef91146103e95780635415555d146104075780635478f468146104255780635931c0d51461044357610206565b80632f2ff15d14610345578063304b1bd11461036157806336568abe14610391578063378aa701146103ad57610206565b806321bb8962116101d957806321bb8962146102a9578063226c8952146102d9578063248a9ca3146102f75780632e2bc0d51461032757610206565b806301ffc9a71461020b57806309648a9d1461023b5780630cc24f5e1461026f5780631264bc051461028d575b600080fd5b61022560048036038101906102209190611d24565b6106a3565b6040516102329190611d6c565b60405180910390f35b61025560048036038101906102509190611dbd565b61071d565b604051610266959493929190611f84565b60405180910390f35b6102776108b6565b6040516102849190611fec565b60405180910390f35b6102a760048036038101906102a29190612065565b6108be565b005b6102c360048036038101906102be9190611dbd565b610a73565b6040516102d09190611d6c565b60405180910390f35b6102e1610a86565b6040516102ee9190611fec565b60405180910390f35b610311600480360381019061030c9190611dbd565b610a8e565b60405161031e9190611fec565b60405180910390f35b61032f610aad565b60405161033c91906120b8565b60405180910390f35b61035f600480360381019061035a91906120da565b610b1b565b005b61037b60048036038101906103769190612150565b610b3d565b6040516103889190611fec565b60405180910390f35b6103ab60048036038101906103a691906120da565b610b61565b005b6103b5610bdc565b6040516103c29190611fec565b60405180910390f35b6103d3610c4b565b6040516103e09190611fec565b60405180910390f35b6103f1610c53565b6040516103fe9190611fec565b60405180910390f35b61040f610c5b565b60405161041c9190611fec565b60405180910390f35b61042d610c63565b60405161043a919061218c565b60405180910390f35b61045d600480360381019061045891906121a7565b610c70565b005b610467610e70565b60405161047491906120b8565b60405180910390f35b610497600480360381019061049291906120da565b610ec8565b6040516104a49190611d6c565b60405180910390f35b6104b5610f32565b6040516104c29190611fec565b60405180910390f35b6104d3610f39565b6040516104e09190611fec565b60405180910390f35b6104f1610f41565b6040516104fe91906120b8565b60405180910390f35b610521600480360381019061051c9190612150565b610f99565b60405161053194939291906121f6565b60405180910390f35b610542610ff9565b60405161054f9190611fec565b60405180910390f35b610560611001565b60405161056d9190611fec565b60405180910390f35b610590600480360381019061058b9190612150565b611009565b6040516105a094939291906121f6565b60405180910390f35b6105b161112a565b6040516105be9190611fec565b60405180910390f35b6105e160048036038101906105dc91906120da565b611132565b005b6105fd60048036038101906105f8919061223b565b611154565b005b6106076113fe565b6040516106149190611fec565b60405180910390f35b610625611406565b6040516106329190611fec565b60405180910390f35b61065560048036038101906106509190612150565b61140e565b604051610662919061230b565b60405180910390f35b610685600480360381019061068091906121a7565b611543565b005b6106a1600480360381019061069c91906120da565b6116d9565b005b60007f087afafe000000000000000000000000000000000000000000000000000000007bffffffffffffffffffffffffffffffffffffffffffffffffffffffff1916827bffffffffffffffffffffffffffffffffffffffffffffffffffffffff19161480610716575061071582611736565b5b9050919050565b60006060806060600080600260008881526020019081526020016000209050868160060182600301600760008b81526020019081526020016000208460070160009054906101000a900460e01b838054806020026020016040519081016040528092919081815260200182805480156107b557602002820191906000526020600020905b8154815260200190600101908083116107a1575b505050505093508280548060200260200160405190810160405280929190818152602001828054801561080757602002820191906000526020600020905b8154815260200190600101908083116107f3575b505050505092508180548060200260200160405190810160405280929190818152602001828054801561089b57602002820191906000526020600020906000905b82829054906101000a900460e01b7bffffffffffffffffffffffffffffffffffffffffffffffffffffffff1916815260200190600401906020826003010492830192600103820291508084116108485790505b50505050509150955095509550955095505091939590929450565b600e60001b81565b826002600082815260200190815260200160002060000160009054906101000a900460ff16610922576040517f08c379a00000000000000000000000000000000000000000000000000000000081526004016109199061239f565b60405180910390fd5b336109306000801b82610ec8565b61096f576040517f08c379a00000000000000000000000000000000000000000000000000000000081526004016109669061240b565b60405180910390fd5b60026000868152602001908152602001600020600201600085815260200190815260200160002060009054906101000a900460ff16156109e4576040517f08c379a00000000000000000000000000000000000000000000000000000000081526004016109db9061249d565b60405180910390fd5b600160026000878152602001908152602001600020600201600086815260200190815260200160002060006101000a81548160ff02191690831515021790555060026000868152602001908152602001600020600301849080600181540180825580915050600190039060005260206000200160009091909190915055610a6b84846117b0565b505050505050565b6000610a7f8233610ec8565b9050919050565b600260001b81565b6000806000838152602001908152602001600020600101549050919050565b6060600260006004548152602001908152602001600020600601805480602002602001604051908101604052809291908181526020018280548015610b1157602002820191906000526020600020905b815481526020019060010190808311610afd575b5050505050905090565b610b2482610a8e565b610b2d816118a1565b610b3783836117b0565b50505050565b600c8181548110610b4d57600080fd5b906000526020600020016000915090505481565b610b696118b5565b73ffffffffffffffffffffffffffffffffffffffff168173ffffffffffffffffffffffffffffffffffffffff1614610bcd576040517f6697b23200000000000000000000000000000000000000000000000000000000815260040160405180910390fd5b610bd782826118bd565b505050565b600060026000600454815260200190815260200160002060000160009054906101000a900460ff16610c43576040517f08c379a0000000000000000000000000000000000000000000000000000000008152600401610c3a9061252f565b60405180910390fd5b600454905090565b600d60001b81565b600f60001b81565b600c60001b81565b6000600180549050905090565b600060038054905011610cb8576040517f08c379a0000000000000000000000000000000000000000000000000000000008152600401610caf906125c1565b60405180910390fd5b8181610ccc610cc5610bdc565b83836119af565b6000600454905084600481905550600060026000838152602001908152602001600020600501905060005b8180549050811015610d6157610d548388848481548110610d1b57610d1a6125e1565b5b90600052602060002090600491828204019190066008029054906101000a90048015611cbd021767ffffffffffffffff1663ffffffff16565b8080600101915050610cf7565b50600160405180608001604052808481526020018881526020013373ffffffffffffffffffffffffffffffffffffffff168152602001428152509080600181540180825580915050600190039060005260206000209060040201600090919091909150600082015181600001556020820151816001015560408201518160020160006101000a81548173ffffffffffffffffffffffffffffffffffffffff021916908373ffffffffffffffffffffffffffffffffffffffff1602179055506060820151816003015550507f483a31c379a4b707332853662276a3424ec44f0ccbfc20d78fd9d143694f76693383600454604051610e6093929190612610565b60405180910390a1505050505050565b6060600c805480602002602001604051908101604052809291908181526020018280548015610ebe57602002820191906000526020600020905b815481526020019060010190808311610eaa575b5050505050905090565b600080600084815260200190815260200160002060000160008373ffffffffffffffffffffffffffffffffffffffff1673ffffffffffffffffffffffffffffffffffffffff16815260200190815260200160002060009054906101000a900460ff16905092915050565b6000801b81565b600560001b81565b60606003805480602002602001604051908101604052809291908181526020018280548015610f8f57602002820191906000526020600020905b815481526020019060010190808311610f7b575b5050505050905090565b60018181548110610fa957600080fd5b90600052602060002090600402016000915090508060000154908060010154908060020160009054906101000a900473ffffffffffffffffffffffffffffffffffffffff16908060030154905084565b600160001b81565b600360001b81565b60008060008060008510158015611024575060018054905085105b611063576040517f08c379a000000000000000000000000000000000000000000000000000000000815260040161105a90612693565b60405180910390fd5b60018581548110611077576110766125e1565b5b9060005260206000209060040201600001546001868154811061109d5761109c6125e1565b5b906000526020600020906004020160010154600187815481106110c3576110c26125e1565b5b906000526020600020906004020160020160009054906101000a900473ffffffffffffffffffffffffffffffffffffffff1660018881548110611109576111086125e1565b5b90600052602060002090600402016003015493509350935093509193509193565b600a60001b81565b61113b82610a8e565b611144816118a1565b61114e83836118bd565b50505050565b816002600082815260200190815260200160002060000160009054906101000a900460ff166111b8576040517f08c379a00000000000000000000000000000000000000000000000000000000081526004016111af9061239f565b60405180910390fd5b336111c66000801b82610ec8565b611205576040517f08c379a00000000000000000000000000000000000000000000000000000000081526004016111fc9061240b565b60405180910390fd5b60066000847bffffffffffffffffffffffffffffffffffffffffffffffffffffffff19167bffffffffffffffffffffffffffffffffffffffffffffffffffffffff1916815260200190815260200160002060009054906101000a900460ff1661131e57600160066000857bffffffffffffffffffffffffffffffffffffffffffffffffffffffff19167bffffffffffffffffffffffffffffffffffffffffffffffffffffffff1916815260200190815260200160002060006101000a81548160ff02191690831515021790555060058390806001815401808255809150506001900390600052602060002090600891828204019190066004029091909190916101000a81548163ffffffff021916908360e01c02179055505b6001600260008681526020019081526020016000206001016000857bffffffffffffffffffffffffffffffffffffffffffffffffffffffff19167bffffffffffffffffffffffffffffffffffffffffffffffffffffffff1916815260200190815260200160002060006101000a81548160ff021916908315150217905550600760008581526020019081526020016000208390806001815401808255809150506001900390600052602060002090600891828204019190066004029091909190916101000a81548163ffffffff021916908360e01c021790555050505050565b600b60001b81565b600460001b81565b606061141982611b15565b611458576040517f08c379a000000000000000000000000000000000000000000000000000000000815260040161144f90612725565b60405180910390fd5b6000600b6000848152602001908152602001600020805461147890612774565b80601f01602080910402602001604051908101604052809291908181526020018280546114a490612774565b80156114f15780601f106114c6576101008083540402835291602001916114f1565b820191906000526020600020905b8154815290600101906020018083116114d457829003601f168201915b505050505090506000600a805461150790612774565b905003611517578091505061153e565b600a8160405160200161152b929190612879565b6040516020818303038152906040529150505b919050565b816002600082815260200190815260200160002060000160009054906101000a900460ff166115a7576040517f08c379a000000000000000000000000000000000000000000000000000000000815260040161159e9061239f565b60405180910390fd5b816002600082815260200190815260200160002060000160009054906101000a900460ff1661160b576040517f08c379a00000000000000000000000000000000000000000000000000000000081526004016116029061239f565b60405180910390fd5b336116196000801b82610ec8565b611658576040517f08c379a000000000000000000000000000000000000000000000000000000000815260040161164f9061240b565b60405180910390fd5b60026000868152602001908152602001600020600601849080600181540180825580915050600190039060005260206000200160009091909190915055600160086000878152602001908152602001600020600086815260200190815260200160002060006101000a81548160ff0219169083151502179055505050505050565b336116e76000801b82610ec8565b611726576040517f08c379a000000000000000000000000000000000000000000000000000000000815260040161171d9061240b565b60405180910390fd5b61173083836117b0565b50505050565b60007f7965db0b000000000000000000000000000000000000000000000000000000007bffffffffffffffffffffffffffffffffffffffffffffffffffffffff1916827bffffffffffffffffffffffffffffffffffffffffffffffffffffffff191614806117a957506117a882611b31565b5b9050919050565b60006117bc8383610ec8565b61189657600160008085815260200190815260200160002060000160008473ffffffffffffffffffffffffffffffffffffffff1673ffffffffffffffffffffffffffffffffffffffff16815260200190815260200160002060006101000a81548160ff0219169083151502179055506118336118b5565b73ffffffffffffffffffffffffffffffffffffffff168273ffffffffffffffffffffffffffffffffffffffff16847f2f8788117e7eff1d82e926ec794901d17c78024a50270940304540a733656f0d60405160405180910390a46001905061189b565b600090505b92915050565b6118b2816118ad6118b5565b611b9b565b50565b600033905090565b60006118c98383610ec8565b156119a457600080600085815260200190815260200160002060000160008473ffffffffffffffffffffffffffffffffffffffff1673ffffffffffffffffffffffffffffffffffffffff16815260200190815260200160002060006101000a81548160ff0219169083151502179055506119416118b5565b73ffffffffffffffffffffffffffffffffffffffff168273ffffffffffffffffffffffffffffffffffffffff16847ff6391f5c32d9c69d2a47ea670b442974b53935d1edc7fd64eb21e047a839171b60405160405180910390a4600190506119a9565b600090505b92915050565b6002600084815260200190815260200160002060000160009054906101000a900460ff16611a12576040517f08c379a0000000000000000000000000000000000000000000000000000000008152600401611a099061290f565b60405180910390fd5b6002600083815260200190815260200160002060000160009054906101000a900460ff16611a75576040517f08c379a0000000000000000000000000000000000000000000000000000000008152600401611a6c906129a1565b60405180910390fd5b611a7f8383611bec565b611abe576040517f08c379a0000000000000000000000000000000000000000000000000000000008152600401611ab590612a0d565b60405180910390fd5b611ac781610a73565b611b06576040517f08c379a0000000000000000000000000000000000000000000000000000000008152600401611afd90612a9f565b60405180910390fd5b611b108383611c30565b505050565b60008060095414158015611b2a575060095482145b9050919050565b60007f01ffc9a7000000000000000000000000000000000000000000000000000000007bffffffffffffffffffffffffffffffffffffffffffffffffffffffff1916827bffffffffffffffffffffffffffffffffffffffffffffffffffffffff1916149050919050565b611ba58282610ec8565b611be85780826040517fe2517d3f000000000000000000000000000000000000000000000000000000008152600401611bdf929190612abf565b60405180910390fd5b5050565b600060086000848152602001908152602001600020600083815260200190815260200160002060009054906101000a900460ff1615611c2a57600190505b92915050565b600060026000838152602001908152602001600020600401905060005b8180549050811015611cb757611caa8484848481548110611c7157611c706125e1565b5b90600052602060002090600491828204019190066008029054906101000a90048015611cbd021767ffffffffffffffff1663ffffffff16565b8080600101915050611c4d565b50505050565b611cc5612ae8565b565b600080fd5b60007fffffffff0000000000000000000000000000000000000000000000000000000082169050919050565b611d0181611ccc565b8114611d0c57600080fd5b50565b600081359050611d1e81611cf8565b92915050565b600060208284031215611d3a57611d39611cc7565b5b6000611d4884828501611d0f565b91505092915050565b60008115159050919050565b611d6681611d51565b82525050565b6000602082019050611d816000830184611d5d565b92915050565b6000819050919050565b611d9a81611d87565b8114611da557600080fd5b50565b600081359050611db781611d91565b92915050565b600060208284031215611dd357611dd2611cc7565b5b6000611de184828501611da8565b91505092915050565b611df381611d87565b82525050565b600081519050919050565b600082825260208201905092915050565b6000819050602082019050919050565b611e2e81611d87565b82525050565b6000611e408383611e25565b60208301905092915050565b6000602082019050919050565b6000611e6482611df9565b611e6e8185611e04565b9350611e7983611e15565b8060005b83811015611eaa578151611e918882611e34565b9750611e9c83611e4c565b925050600181019050611e7d565b5085935050505092915050565b600081519050919050565b600082825260208201905092915050565b6000819050602082019050919050565b611eec81611ccc565b82525050565b6000611efe8383611ee3565b60208301905092915050565b6000602082019050919050565b6000611f2282611eb7565b611f2c8185611ec2565b9350611f3783611ed3565b8060005b83811015611f68578151611f4f8882611ef2565b9750611f5a83611f0a565b925050600181019050611f3b565b5085935050505092915050565b611f7e81611ccc565b82525050565b600060a082019050611f996000830188611dea565b8181036020830152611fab8187611e59565b90508181036040830152611fbf8186611e59565b90508181036060830152611fd38185611f17565b9050611fe26080830184611f75565b9695505050505050565b60006020820190506120016000830184611dea565b92915050565b600073ffffffffffffffffffffffffffffffffffffffff82169050919050565b600061203282612007565b9050919050565b61204281612027565b811461204d57600080fd5b50565b60008135905061205f81612039565b92915050565b60008060006060848603121561207e5761207d611cc7565b5b600061208c86828701611da8565b935050602061209d86828701611da8565b92505060406120ae86828701612050565b9150509250925092565b600060208201905081810360008301526120d28184611e59565b905092915050565b600080604083850312156120f1576120f0611cc7565b5b60006120ff85828601611da8565b925050602061211085828601612050565b9150509250929050565b6000819050919050565b61212d8161211a565b811461213857600080fd5b50565b60008135905061214a81612124565b92915050565b60006020828403121561216657612165611cc7565b5b60006121748482850161213b565b91505092915050565b6121868161211a565b82525050565b60006020820190506121a1600083018461217d565b92915050565b600080604083850312156121be576121bd611cc7565b5b60006121cc85828601611da8565b92505060206121dd85828601611da8565b9150509250929050565b6121f081612027565b82525050565b600060808201905061220b6000830187611dea565b6122186020830186611dea565b61222560408301856121e7565b612232606083018461217d565b95945050505050565b6000806040838503121561225257612251611cc7565b5b600061226085828601611da8565b925050602061227185828601611d0f565b9150509250929050565b600081519050919050565b600082825260208201905092915050565b60005b838110156122b557808201518184015260208101905061229a565b60008484015250505050565b6000601f19601f8301169050919050565b60006122dd8261227b565b6122e78185612286565b93506122f7818560208601612297565b612300816122c1565b840191505092915050565b6000602082019050818103600083015261232581846122d2565b905092915050565b7f74686520737461746520686173206e6f74206265656e2063726561746564207960008201527f6574000000000000000000000000000000000000000000000000000000000000602082015250565b6000612389602283612286565b91506123948261232d565b604082019050919050565b600060208201905081810360008301526123b88161237c565b9050919050565b7f43616c6c6572206973206e6f7420616e2061646d696e00000000000000000000600082015250565b60006123f5601683612286565b9150612400826123bf565b602082019050919050565b60006020820190508181036000830152612424816123e8565b9050919050565b7f74686520726f6c6520686173206265656e20616c72656164792061646465642060008201527f6174207468697320737461746500000000000000000000000000000000000000602082015250565b6000612487602d83612286565b91506124928261242b565b604082019050919050565b600060208201905081810360008301526124b68161247a565b9050919050565b7f74686520696e697469616c20737461746520686173206e6f74206265656e206360008201527f7265617465642079657400000000000000000000000000000000000000000000602082015250565b6000612519602a83612286565b9150612524826124bd565b604082019050919050565b600060208201905081810360008301526125488161250c565b9050919050565b7f746869732073746174656d616368696e6520686173206e6f74206265656e207360008201527f6574757020796574000000000000000000000000000000000000000000000000602082015250565b60006125ab602883612286565b91506125b68261254f565b604082019050919050565b600060208201905081810360008301526125da8161259e565b9050919050565b7f4e487b7100000000000000000000000000000000000000000000000000000000600052603260045260246000fd5b600060608201905061262560008301866121e7565b6126326020830185611dea565b61263f6040830184611dea565b949350505050565b7f496e646578206f7574206f6620626f756e647300000000000000000000000000600082015250565b600061267d601383612286565b915061268882612647565b602082019050919050565b600060208201905081810360008301526126ac81612670565b9050919050565b7f53746174654d616368696e654d657461646174613a205552492071756572792060008201527f666f72206e6f6e6578697374656e7420656e7469747900000000000000000000602082015250565b600061270f603683612286565b915061271a826126b3565b604082019050919050565b6000602082019050818103600083015261273e81612702565b9050919050565b7f4e487b7100000000000000000000000000000000000000000000000000000000600052602260045260246000fd5b6000600282049050600182168061278c57607f821691505b60208210810361279f5761279e612745565b5b50919050565b600081905092915050565b60008190508160005260206000209050919050565b600081546127d281612774565b6127dc81866127a5565b945060018216600081146127f7576001811461280c5761283f565b60ff198316865281151582028601935061283f565b612815856127b0565b60005b8381101561283757815481890152600182019150602081019050612818565b838801955050505b50505092915050565b60006128538261227b565b61285d81856127a5565b935061286d818560208601612297565b80840191505092915050565b600061288582856127c5565b91506128918284612848565b91508190509392505050565b7f7468652066726f6d20737461746520686173206e6f74206265656e20636f6e6660008201527f69677572656420696e2074686973206f626a6563740000000000000000000000602082015250565b60006128f9603583612286565b91506129048261289d565b604082019050919050565b60006020820190508181036000830152612928816128ec565b9050919050565b7f74686520746f20737461746520686173206e6f74206265656e20636f6e66696760008201527f7572656420696e2074686973206f626a65637400000000000000000000000000602082015250565b600061298b603383612286565b91506129968261292f565b604082019050919050565b600060208201905081810360008301526129ba8161297e565b9050919050565b7f54686973207472616e736974696f6e206973206e6f7420616c6c6f7765640000600082015250565b60006129f7601e83612286565b9150612a02826129c1565b602082019050919050565b60006020820190508181036000830152612a26816129ea565b9050919050565b7f7468652073656e646572206f662074686973207472616e73616374696f6e206360008201527f616e6e6f7420706572666f726d2074686973207472616e736974696f6e000000602082015250565b6000612a89603d83612286565b9150612a9482612a2d565b604082019050919050565b60006020820190508181036000830152612ab881612a7c565b9050919050565b6000604082019050612ad460008301856121e7565b612ae16020830184611dea565b9392505050565b7f4e487b7100000000000000000000000000000000000000000000000000000000600052605160045260246000fdfea2646970667358221220248b6f25b7c1c9e63081e8756faa679c5dfe10b5e926cdde1b8beb2769379e4464736f6c63430008180033",
  "linkReferences": {},
  "deployedLinkReferences": {}
}