{
  "_format": "hh-sol-artifact-1",
  "contractName": "GenericStateMachine",
  "sourceName": "src/statemachine/extensions/GenericStateMachine.sol",
  "abi": [
    {
      "inputs": [
        {
          "internalType": "uint256",
          "name": "entityId",
          "type": "uint256"
        },
        {
          "internalType": "string",
          "name": "ipfsHash",
          "type": "string"
        },
        {
          "internalType": "string",
          "name": "baseURI",
          "type": "string"
        }
      ],
      "stateMutability": "nonpayable",
      "type": "constructor"
    },
    {
      "inputs": [],
      "name": "AccessControlBadConfirmation",
      "type": "error"
    },
    {
      "inputs": [
        {
          "internalType": "address",
          "name": "account",
          "type": "address"
        },
        {
          "internalType": "bytes32",
          "name": "neededRole",
          "type": "bytes32"
        }
      ],
      "name": "AccessControlUnauthorizedAccount",
      "type": "error"
    },
    {
      "anonymous": false,
      "inputs": [
        {
          "indexed": true,
          "internalType": "bytes32",
          "name": "role",
          "type": "bytes32"
        },
        {
          "indexed": true,
          "internalType": "bytes32",
          "name": "previousAdminRole",
          "type": "bytes32"
        },
        {
          "indexed": true,
          "internalType": "bytes32",
          "name": "newAdminRole",
          "type": "bytes32"
        }
      ],
      "name": "RoleAdminChanged",
      "type": "event"
    },
    {
      "anonymous": false,
      "inputs": [
        {
          "indexed": true,
          "internalType": "bytes32",
          "name": "role",
          "type": "bytes32"
        },
        {
          "indexed": true,
          "internalType": "address",
          "name": "account",
          "type": "address"
        },
        {
          "indexed": true,
          "internalType": "address",
          "name": "sender",
          "type": "address"
        }
      ],
      "name": "RoleGranted",
      "type": "event"
    },
    {
      "anonymous": false,
      "inputs": [
        {
          "indexed": true,
          "internalType": "bytes32",
          "name": "role",
          "type": "bytes32"
        },
        {
          "indexed": true,
          "internalType": "address",
          "name": "account",
          "type": "address"
        },
        {
          "indexed": true,
          "internalType": "address",
          "name": "sender",
          "type": "address"
        }
      ],
      "name": "RoleRevoked",
      "type": "event"
    },
    {
      "anonymous": false,
      "inputs": [
        {
          "indexed": false,
          "internalType": "address",
          "name": "sender",
          "type": "address"
        },
        {
          "indexed": false,
          "internalType": "bytes32",
          "name": "fromState",
          "type": "bytes32"
        },
        {
          "indexed": false,
          "internalType": "bytes32",
          "name": "toState",
          "type": "bytes32"
        }
      ],
      "name": "Transition",
      "type": "event"
    },
    {
      "inputs": [],
      "name": "DEFAULT_ADMIN_ROLE",
      "outputs": [
        {
          "internalType": "bytes32",
          "name": "",
          "type": "bytes32"
        }
      ],
      "stateMutability": "view",
      "type": "function"
    },
    {
      "inputs": [],
      "name": "ROLE_ADMIN",
      "outputs": [
        {
          "internalType": "bytes32",
          "name": "",
          "type": "bytes32"
        }
      ],
      "stateMutability": "view",
      "type": "function"
    },
    {
      "inputs": [],
      "name": "ROLE_FOUR",
      "outputs": [
        {
          "internalType": "bytes32",
          "name": "",
          "type": "bytes32"
        }
      ],
      "stateMutability": "view",
      "type": "function"
    },
    {
      "inputs": [],
      "name": "ROLE_MANUFACTURER",
      "outputs": [
        {
          "internalType": "bytes32",
          "name": "",
          "type": "bytes32"
        }
      ],
      "stateMutability": "view",
      "type": "function"
    },
    {
      "inputs": [],
      "name": "ROLE_ONE",
      "outputs": [
        {
          "internalType": "bytes32",
          "name": "",
          "type": "bytes32"
        }
      ],
      "stateMutability": "view",
      "type": "function"
    },
    {
      "inputs": [],
      "name": "ROLE_THREE",
      "outputs": [
        {
          "internalType": "bytes32",
          "name": "",
          "type": "bytes32"
        }
      ],
      "stateMutability": "view",
      "type": "function"
    },
    {
      "inputs": [],
      "name": "ROLE_TWO",
      "outputs": [
        {
          "internalType": "bytes32",
          "name": "",
          "type": "bytes32"
        }
      ],
      "stateMutability": "view",
      "type": "function"
    },
    {
      "inputs": [],
      "name": "STATE_FIVE",
      "outputs": [
        {
          "internalType": "bytes32",
          "name": "",
          "type": "bytes32"
        }
      ],
      "stateMutability": "view",
      "type": "function"
    },
    {
      "inputs": [],
      "name": "STATE_FOUR",
      "outputs": [
        {
          "internalType": "bytes32",
          "name": "",
          "type": "bytes32"
        }
      ],
      "stateMutability": "view",
      "type": "function"
    },
    {
      "inputs": [],
      "name": "STATE_ONE",
      "outputs": [
        {
          "internalType": "bytes32",
          "name": "",
          "type": "bytes32"
        }
      ],
      "stateMutability": "view",
      "type": "function"
    },
    {
      "inputs": [],
      "name": "STATE_THREE",
      "outputs": [
        {
          "internalType": "bytes32",
          "name": "",
          "type": "bytes32"
        }
      ],
      "stateMutability": "view",
      "type": "function"
    },
    {
      "inputs": [],
      "name": "STATE_TWO",
      "outputs": [
        {
          "internalType": "bytes32",
          "name": "",
          "type": "bytes32"
        }
      ],
      "stateMutability": "view",
      "type": "function"
    },
    {
      "inputs": [
        {
          "internalType": "uint256",
          "name": "",
          "type": "uint256"
        }
      ],
      "name": "_roles",
      "outputs": [
        {
          "internalType": "bytes32",
          "name": "",
          "type": "bytes32"
        }
      ],
      "stateMutability": "view",
      "type": "function"
    },
    {
      "inputs": [
        {
          "internalType": "bytes32",
          "name": "state",
          "type": "bytes32"
        },
        {
          "internalType": "bytes4",
          "name": "allowedFunction",
          "type": "bytes4"
        }
      ],
      "name": "addAllowedFunctionForState",
      "outputs": [],
      "stateMutability": "nonpayable",
      "type": "function"
    },
    {
      "inputs": [
        {
          "internalType": "bytes32",
          "name": "state",
          "type": "bytes32"
        },
        {
          "internalType": "bytes32",
          "name": "nextState",
          "type": "bytes32"
        }
      ],
      "name": "addNextStateForState",
      "outputs": [],
      "stateMutability": "nonpayable",
      "type": "function"
    },
    {
      "inputs": [
        {
          "internalType": "bytes32",
          "name": "state",
          "type": "bytes32"
        },
        {
          "internalType": "bytes32",
          "name": "role",
          "type": "bytes32"
        },
        {
          "internalType": "address",
          "name": "account",
          "type": "address"
        }
      ],
      "name": "addRoleForState",
      "outputs": [],
      "stateMutability": "nonpayable",
      "type": "function"
    },
    {
      "inputs": [
        {
          "internalType": "bytes32",
          "name": "role",
          "type": "bytes32"
        }
      ],
      "name": "checkAllowedRoles",
      "outputs": [
        {
          "internalType": "bool",
          "name": "",
          "type": "bool"
        }
      ],
      "stateMutability": "view",
      "type": "function"
    },
    {
      "inputs": [
        {
          "internalType": "uint256",
          "name": "entityId",
          "type": "uint256"
        }
      ],
      "name": "entityURI",
      "outputs": [
        {
          "internalType": "string",
          "name": "",
          "type": "string"
        }
      ],
      "stateMutability": "view",
      "type": "function"
    },
    {
      "inputs": [],
      "name": "getAllStates",
      "outputs": [
        {
          "internalType": "bytes32[]",
          "name": "allStates",
          "type": "bytes32[]"
        }
      ],
      "stateMutability": "view",
      "type": "function"
    },
    {
      "inputs": [],
      "name": "getCurrentState",
      "outputs": [
        {
          "internalType": "bytes32",
          "name": "state",
          "type": "bytes32"
        }
      ],
      "stateMutability": "view",
      "type": "function"
    },
    {
      "inputs": [
        {
          "internalType": "uint256",
          "name": "index",
          "type": "uint256"
        }
      ],
      "name": "getHistory",
      "outputs": [
        {
          "internalType": "bytes32",
          "name": "fromState",
          "type": "bytes32"
        },
        {
          "internalType": "bytes32",
          "name": "toState",
          "type": "bytes32"
        },
        {
          "internalType": "address",
          "name": "actor",
          "type": "address"
        },
        {
          "internalType": "uint256",
          "name": "timestamp",
          "type": "uint256"
        }
      ],
      "stateMutability": "view",
      "type": "function"
    },
    {
      "inputs": [],
      "name": "getHistoryLength",
      "outputs": [
        {
          "internalType": "uint256",
          "name": "",
          "type": "uint256"
        }
      ],
      "stateMutability": "view",
      "type": "function"
    },
    {
      "inputs": [],
      "name": "getNextStates",
      "outputs": [
        {
          "internalType": "bytes32[]",
          "name": "nextStates",
          "type": "bytes32[]"
        }
      ],
      "stateMutability": "view",
      "type": "function"
    },
    {
      "inputs": [
        {
          "internalType": "bytes32",
          "name": "role",
          "type": "bytes32"
        }
      ],
      "name": "getRoleAdmin",
      "outputs": [
        {
          "internalType": "bytes32",
          "name": "",
          "type": "bytes32"
        }
      ],
      "stateMutability": "view",
      "type": "function"
    },
    {
      "inputs": [],
      "name": "getRoles",
      "outputs": [
        {
          "internalType": "bytes32[]",
          "name": "",
          "type": "bytes32[]"
        }
      ],
      "stateMutability": "view",
      "type": "function"
    },
    {
      "inputs": [
        {
          "internalType": "bytes32",
          "name": "state",
          "type": "bytes32"
        }
      ],
      "name": "getState",
      "outputs": [
        {
          "internalType": "bytes32",
          "name": "name",
          "type": "bytes32"
        },
        {
          "internalType": "bytes32[]",
          "name": "nextStates",
          "type": "bytes32[]"
        },
        {
          "internalType": "bytes32[]",
          "name": "allowedRoles",
          "type": "bytes32[]"
        },
        {
          "internalType": "bytes4[]",
          "name": "allowedFunctions",
          "type": "bytes4[]"
        },
        {
          "internalType": "bytes4",
          "name": "preFunction",
          "type": "bytes4"
        }
      ],
      "stateMutability": "view",
      "type": "function"
    },
    {
      "inputs": [
        {
          "internalType": "bytes32",
          "name": "role",
          "type": "bytes32"
        },
        {
          "internalType": "address",
          "name": "account",
          "type": "address"
        }
      ],
      "name": "grantRole",
      "outputs": [],
      "stateMutability": "nonpayable",
      "type": "function"
    },
    {
      "inputs": [
        {
          "internalType": "bytes32",
          "name": "roleName",
          "type": "bytes32"
        },
        {
          "internalType": "address",
          "name": "account",
          "type": "address"
        }
      ],
      "name": "grantRoleToAccount",
      "outputs": [],
      "stateMutability": "nonpayable",
      "type": "function"
    },
    {
      "inputs": [
        {
          "internalType": "bytes32",
          "name": "role",
          "type": "bytes32"
        },
        {
          "internalType": "address",
          "name": "account",
          "type": "address"
        }
      ],
      "name": "hasRole",
      "outputs": [
        {
          "internalType": "bool",
          "name": "",
          "type": "bool"
        }
      ],
      "stateMutability": "view",
      "type": "function"
    },
    {
      "inputs": [
        {
          "internalType": "uint256",
          "name": "",
          "type": "uint256"
        }
      ],
      "name": "history",
      "outputs": [
        {
          "internalType": "bytes32",
          "name": "fromState",
          "type": "bytes32"
        },
        {
          "internalType": "bytes32",
          "name": "toState",
          "type": "bytes32"
        },
        {
          "internalType": "address",
          "name": "actor",
          "type": "address"
        },
        {
          "internalType": "uint256",
          "name": "timestamp",
          "type": "uint256"
        }
      ],
      "stateMutability": "view",
      "type": "function"
    },
    {
      "inputs": [
        {
          "internalType": "bytes32",
          "name": "role",
          "type": "bytes32"
        },
        {
          "internalType": "address",
          "name": "callerConfirmation",
          "type": "address"
        }
      ],
      "name": "renounceRole",
      "outputs": [],
      "stateMutability": "nonpayable",
      "type": "function"
    },
    {
      "inputs": [
        {
          "internalType": "bytes32",
          "name": "role",
          "type": "bytes32"
        },
        {
          "internalType": "address",
          "name": "account",
          "type": "address"
        }
      ],
      "name": "revokeRole",
      "outputs": [],
      "stateMutability": "nonpayable",
      "type": "function"
    },
    {
      "inputs": [
        {
          "internalType": "bytes4",
          "name": "interfaceId",
          "type": "bytes4"
        }
      ],
      "name": "supportsInterface",
      "outputs": [
        {
          "internalType": "bool",
          "name": "",
          "type": "bool"
        }
      ],
      "stateMutability": "view",
      "type": "function"
    },
    {
      "inputs": [
        {
          "internalType": "bytes32",
          "name": "toState",
          "type": "bytes32"
        },
        {
          "internalType": "bytes32",
          "name": "role",
          "type": "bytes32"
        }
      ],
      "name": "transitionState",
      "outputs": [],
      "stateMutability": "nonpayable",
      "type": "function"
    }
  ],
  "bytecode": "0x608060405260405180602001604052806000815250600a908162000024919062001153565b503480156200003257600080fd5b50604051620045fa380380620045fa8339818101604052810190620000589190620013cf565b60003390506040518060c001604052807f524f4c455f41444d494e0000000000000000000000000000000000000000000081526020017f524f4c455f4d414e55464143545552455200000000000000000000000000000081526020017f4348414e47455f484552455f524f4c455f4f4e4500000000000000000000000081526020017f4348414e47455f484552455f524f4c455f54574f00000000000000000000000081526020017f4348414e47455f484552455f524f4c455f54485245450000000000000000000081526020017f4348414e47455f484552455f524f4c455f464f55520000000000000000000000815250600c9060066200015c92919062000e68565b50620001726000801b82620001bb60201b60201c565b506200018481620002be60201b60201c565b8360098190555081600a90816200019c919062001153565b50620001b1600954846200082b60201b60201c565b5050505062001969565b6000620001cf8383620008a560201b60201c565b620002b357600160008085815260200190815260200160002060000160008473ffffffffffffffffffffffffffffffffffffffff1673ffffffffffffffffffffffffffffffffffffffff16815260200190815260200160002060006101000a81548160ff0219169083151502179055506200024f6200090f60201b60201c565b73ffffffffffffffffffffffffffffffffffffffff168273ffffffffffffffffffffffffffffffffffffffff16847f2f8788117e7eff1d82e926ec794901d17c78024a50270940304540a733656f0d60405160405180910390a460019050620002b8565b600090505b92915050565b620002cf816200091760201b60201c565b620003007f4348414e47455f484552455f53544154455f4f4e4500000000000000000000006200091a60201b60201c565b620003317f4348414e47455f484552455f53544154455f54574f00000000000000000000006200091a60201b60201c565b620003627f4348414e47455f484552455f53544154455f54485245450000000000000000006200091a60201b60201c565b620003937f4348414e47455f484552455f53544154455f464f5552000000000000000000006200091a60201b60201c565b620003c47f4348414e47455f484552455f53544154455f46495645000000000000000000006200091a60201b60201c565b620004167f4348414e47455f484552455f53544154455f4f4e4500000000000000000000007f4348414e47455f484552455f53544154455f54574f0000000000000000000000620009dc60201b60201c565b620004697f4348414e47455f484552455f53544154455f4f4e4500000000000000000000007f524f4c455f41444d494e000000000000000000000000000000000000000000008362000b8360201b60201c565b620004bc7f4348414e47455f484552455f53544154455f4f4e4500000000000000000000007f4348414e47455f484552455f524f4c455f4f4e450000000000000000000000008362000b8360201b60201c565b6200050f7f4348414e47455f484552455f53544154455f4f4e4500000000000000000000007f524f4c455f4d414e5546414354555245520000000000000000000000000000008362000b8360201b60201c565b620005617f4348414e47455f484552455f53544154455f54574f00000000000000000000007f4348414e47455f484552455f53544154455f5448524545000000000000000000620009dc60201b60201c565b620005b47f4348414e47455f484552455f53544154455f54574f00000000000000000000007f524f4c455f41444d494e000000000000000000000000000000000000000000008362000b8360201b60201c565b620006077f4348414e47455f484552455f53544154455f54574f00000000000000000000007f4348414e47455f484552455f524f4c455f54574f0000000000000000000000008362000b8360201b60201c565b620006597f4348414e47455f484552455f53544154455f54485245450000000000000000007f4348414e47455f484552455f53544154455f464f555200000000000000000000620009dc60201b60201c565b620006ac7f4348414e47455f484552455f53544154455f54485245450000000000000000007f524f4c455f41444d494e000000000000000000000000000000000000000000008362000b8360201b60201c565b620006ff7f4348414e47455f484552455f53544154455f54485245450000000000000000007f4348414e47455f484552455f524f4c455f5448524545000000000000000000008362000b8360201b60201c565b620007517f4348414e47455f484552455f53544154455f464f5552000000000000000000007f4348414e47455f484552455f53544154455f4649564500000000000000000000620009dc60201b60201c565b620007a47f4348414e47455f484552455f53544154455f464f5552000000000000000000007f524f4c455f41444d494e000000000000000000000000000000000000000000008362000b8360201b60201c565b620007f77f4348414e47455f484552455f53544154455f464f5552000000000000000000007f4348414e47455f484552455f524f4c455f464f555200000000000000000000008362000b8360201b60201c565b620008287f4348414e47455f484552455f53544154455f4f4e45000000000000000000000062000d5160201b60201c565b50565b6200083c8262000e4b60201b60201c565b6200087e576040517f08c379a00000000000000000000000000000000000000000000000000000000081526004016200087590620014f0565b60405180910390fd5b80600b60008481526020019081526020016000209081620008a0919062001153565b505050565b600080600084815260200190815260200160002060000160008373ffffffffffffffffffffffffffffffffffffffff1673ffffffffffffffffffffffffffffffffffffffff16815260200190815260200160002060009054906101000a900460ff16905092915050565b600033905090565b50565b6002600082815260200190815260200160002060000160009054906101000a900460ff161562000981576040517f08c379a0000000000000000000000000000000000000000000000000000000008152600401620009789062001588565b60405180910390fd5b60016002600083815260200190815260200160002060000160006101000a81548160ff021916908315150217905550600381908060018154018082558091505060019003906000526020600020016000909190919091505550565b816002600082815260200190815260200160002060000160009054906101000a900460ff1662000a43576040517f08c379a000000000000000000000000000000000000000000000000000000000815260040162000a3a9062001620565b60405180910390fd5b816002600082815260200190815260200160002060000160009054906101000a900460ff1662000aaa576040517f08c379a000000000000000000000000000000000000000000000000000000000815260040162000aa19062001620565b60405180910390fd5b3362000ac06000801b82620008a560201b60201c565b62000b02576040517f08c379a000000000000000000000000000000000000000000000000000000000815260040162000af99062001692565b60405180910390fd5b60026000868152602001908152602001600020600601849080600181540180825580915050600190039060005260206000200160009091909190915055600160086000878152602001908152602001600020600086815260200190815260200160002060006101000a81548160ff0219169083151502179055505050505050565b826002600082815260200190815260200160002060000160009054906101000a900460ff1662000bea576040517f08c379a000000000000000000000000000000000000000000000000000000000815260040162000be19062001620565b60405180910390fd5b3362000c006000801b82620008a560201b60201c565b62000c42576040517f08c379a000000000000000000000000000000000000000000000000000000000815260040162000c399062001692565b60405180910390fd5b60026000868152602001908152602001600020600201600085815260200190815260200160002060009054906101000a900460ff161562000cba576040517f08c379a000000000000000000000000000000000000000000000000000000000815260040162000cb1906200172a565b60405180910390fd5b600160026000878152602001908152602001600020600201600086815260200190815260200160002060006101000a81548160ff0219169083151502179055506002600086815260200190815260200160002060030184908060018154018082558091505060019003906000526020600020016000909190919091505562000d498484620001bb60201b60201c565b505050505050565b6002600082815260200190815260200160002060000160009054906101000a900460ff1662000db7576040517f08c379a000000000000000000000000000000000000000000000000000000000815260040162000dae90620017c2565b60405180910390fd5b6000801b6004541462000e01576040517f08c379a000000000000000000000000000000000000000000000000000000000815260040162000df8906200185a565b60405180910390fd5b806004819055507f483a31c379a4b707332853662276a3424ec44f0ccbfc20d78fd9d143694f766933600060045460405162000e40939291906200192c565b60405180910390a150565b6000806009541415801562000e61575060095482145b9050919050565b82805482825590600052602060002090810192821562000ea7579160200282015b8281111562000ea657825182559160200191906001019062000e89565b5b50905062000eb6919062000eba565b5090565b5b8082111562000ed557600081600090555060010162000ebb565b5090565b600081519050919050565b7f4e487b7100000000000000000000000000000000000000000000000000000000600052604160045260246000fd5b7f4e487b7100000000000000000000000000000000000000000000000000000000600052602260045260246000fd5b6000600282049050600182168062000f5b57607f821691505b60208210810362000f715762000f7062000f13565b5b50919050565b60008190508160005260206000209050919050565b60006020601f8301049050919050565b600082821b905092915050565b60006008830262000fdb7fffffffffffffffffffffffffffffffffffffffffffffffffffffffffffffffff8262000f9c565b62000fe7868362000f9c565b95508019841693508086168417925050509392505050565b6000819050919050565b6000819050919050565b6000620010346200102e620010288462000fff565b62001009565b62000fff565b9050919050565b6000819050919050565b620010508362001013565b620010686200105f826200103b565b84845462000fa9565b825550505050565b600090565b6200107f62001070565b6200108c81848462001045565b505050565b5b81811015620010b457620010a860008262001075565b60018101905062001092565b5050565b601f8211156200110357620010cd8162000f77565b620010d88462000f8c565b81016020851015620010e8578190505b62001100620010f78562000f8c565b83018262001091565b50505b505050565b600082821c905092915050565b6000620011286000198460080262001108565b1980831691505092915050565b600062001143838362001115565b9150826002028217905092915050565b6200115e8262000ed9565b67ffffffffffffffff8111156200117a576200117962000ee4565b5b62001186825462000f42565b62001193828285620010b8565b600060209050601f831160018114620011cb5760008415620011b6578287015190505b620011c2858262001135565b86555062001232565b601f198416620011db8662000f77565b60005b828110156200120557848901518255600182019150602085019450602081019050620011de565b8683101562001225578489015162001221601f89168262001115565b8355505b6001600288020188555050505b505050505050565b6000604051905090565b600080fd5b600080fd5b620012598162000fff565b81146200126557600080fd5b50565b60008151905062001279816200124e565b92915050565b600080fd5b600080fd5b6000601f19601f8301169050919050565b620012a58262001289565b810181811067ffffffffffffffff82111715620012c757620012c662000ee4565b5b80604052505050565b6000620012dc6200123a565b9050620012ea82826200129a565b919050565b600067ffffffffffffffff8211156200130d576200130c62000ee4565b5b620013188262001289565b9050602081019050919050565b60005b838110156200134557808201518184015260208101905062001328565b60008484015250505050565b6000620013686200136284620012ef565b620012d0565b90508281526020810184848401111562001387576200138662001284565b5b6200139484828562001325565b509392505050565b600082601f830112620013b457620013b36200127f565b5b8151620013c684826020860162001351565b91505092915050565b600080600060608486031215620013eb57620013ea62001244565b5b6000620013fb8682870162001268565b935050602084015167ffffffffffffffff8111156200141f576200141e62001249565b5b6200142d868287016200139c565b925050604084015167ffffffffffffffff81111562001451576200145062001249565b5b6200145f868287016200139c565b9150509250925092565b600082825260208201905092915050565b7f53746174654d616368696e654d657461446174613a2055524920736574206f6660008201527f206e6f6e6578697374656e742000000000000000000000000000000000000000602082015250565b6000620014d8602d8362001469565b9150620014e5826200147a565b604082019050919050565b600060208201905081810360008301526200150b81620014c9565b9050919050565b7f746869732073746174652068617320616c7265616479206265656e206372656160008201527f7465640000000000000000000000000000000000000000000000000000000000602082015250565b60006200157060238362001469565b91506200157d8262001512565b604082019050919050565b60006020820190508181036000830152620015a38162001561565b9050919050565b7f74686520737461746520686173206e6f74206265656e2063726561746564207960008201527f6574000000000000000000000000000000000000000000000000000000000000602082015250565b60006200160860228362001469565b91506200161582620015aa565b604082019050919050565b600060208201905081810360008301526200163b81620015f9565b9050919050565b7f43616c6c6572206973206e6f7420616e2061646d696e00000000000000000000600082015250565b60006200167a60168362001469565b9150620016878262001642565b602082019050919050565b60006020820190508181036000830152620016ad816200166b565b9050919050565b7f74686520726f6c6520686173206265656e20616c72656164792061646465642060008201527f6174207468697320737461746500000000000000000000000000000000000000602082015250565b600062001712602d8362001469565b91506200171f82620016b4565b604082019050919050565b60006020820190508181036000830152620017458162001703565b9050919050565b7f74686520696e697469616c20737461746520686173206e6f74206265656e206360008201527f7265617465642079657400000000000000000000000000000000000000000000602082015250565b6000620017aa602a8362001469565b9150620017b7826200174c565b604082019050919050565b60006020820190508181036000830152620017dd816200179b565b9050919050565b7f43757272656e742073746174652068617320616c7265616479206265656e207360008201527f65742c20796f752063616e6e6f74207265736574206974000000000000000000602082015250565b60006200184260378362001469565b91506200184f82620017e4565b604082019050919050565b60006020820190508181036000830152620018758162001833565b9050919050565b600073ffffffffffffffffffffffffffffffffffffffff82169050919050565b6000620018a9826200187c565b9050919050565b620018bb816200189c565b82525050565b6000819050919050565b6000819050919050565b60008160001b9050919050565b600062001903620018fd620018f784620018c1565b620018d5565b620018cb565b9050919050565b6200191581620018e2565b82525050565b6200192681620018cb565b82525050565b6000606082019050620019436000830186620018b0565b6200195260208301856200190a565b6200196160408301846200191b565b949350505050565b612c8180620019796000396000f3fe608060405234801561001057600080fd5b50600436106102065760003560e01c8063710613981161011a578063c8691b2a116100ad578063e9ac2d8b1161007c578063e9ac2d8b146105ff578063ed96b08d1461061d578063f2dbd5e81461063b578063f59957111461066b578063fa09964f1461068757610206565b8063c8691b2a14610576578063d391014b146105a9578063d547741f146105c7578063e3513ac4146105e357610206565b8063a4ddb071116100e9578063a4ddb071146104e9578063a7a38f0b14610507578063ac65527f1461053a578063c6ef8f2f1461055857610206565b8063710613981461045f57806391d148541461047d578063a217fddf146104ad578063a2f50784146104cb57610206565b80632f2ff15d1161019d578063390cf6131161016c578063390cf613146103cb5780633bb9ef91146103e95780635415555d146104075780635478f468146104255780635931c0d51461044357610206565b80632f2ff15d14610345578063304b1bd11461036157806336568abe14610391578063378aa701146103ad57610206565b806321bb8962116101d957806321bb8962146102a9578063226c8952146102d9578063248a9ca3146102f75780632e2bc0d51461032757610206565b806301ffc9a71461020b57806309648a9d1461023b5780630cc24f5e1461026f5780631264bc051461028d575b600080fd5b61022560048036038101906102209190611e58565b6106a3565b6040516102329190611ea0565b60405180910390f35b61025560048036038101906102509190611ef1565b61071d565b6040516102669594939291906120b8565b60405180910390f35b6102776108b6565b6040516102849190612120565b60405180910390f35b6102a760048036038101906102a29190612199565b6108da565b005b6102c360048036038101906102be9190611ef1565b610a8f565b6040516102d09190611ea0565b60405180910390f35b6102e1610aa2565b6040516102ee9190612120565b60405180910390f35b610311600480360381019061030c9190611ef1565b610ac6565b60405161031e9190612120565b60405180910390f35b61032f610ae5565b60405161033c91906121ec565b60405180910390f35b61035f600480360381019061035a919061220e565b610b53565b005b61037b60048036038101906103769190612284565b610b75565b6040516103889190612120565b60405180910390f35b6103ab60048036038101906103a6919061220e565b610b99565b005b6103b5610c14565b6040516103c29190612120565b60405180910390f35b6103d3610c83565b6040516103e09190612120565b60405180910390f35b6103f1610ca7565b6040516103fe9190612120565b60405180910390f35b61040f610ccb565b60405161041c9190612120565b60405180910390f35b61042d610cef565b60405161043a91906122c0565b60405180910390f35b61045d600480360381019061045891906122db565b610cfc565b005b610467610efc565b60405161047491906121ec565b60405180910390f35b6104976004803603810190610492919061220e565b610f54565b6040516104a49190611ea0565b60405180910390f35b6104b5610fbe565b6040516104c29190612120565b60405180910390f35b6104d3610fc5565b6040516104e09190612120565b60405180910390f35b6104f1610fe9565b6040516104fe91906121ec565b60405180910390f35b610521600480360381019061051c9190612284565b611041565b604051610531949392919061232a565b60405180910390f35b6105426110a1565b60405161054f9190612120565b60405180910390f35b6105606110c5565b60405161056d9190612120565b60405180910390f35b610590600480360381019061058b9190612284565b6110e9565b6040516105a0949392919061232a565b60405180910390f35b6105b161120a565b6040516105be9190612120565b60405180910390f35b6105e160048036038101906105dc919061220e565b61122e565b005b6105fd60048036038101906105f8919061236f565b611250565b005b6106076114fa565b6040516106149190612120565b60405180910390f35b61062561151e565b6040516106329190612120565b60405180910390f35b61065560048036038101906106509190612284565b611542565b604051610662919061243f565b60405180910390f35b610685600480360381019061068091906122db565b611677565b005b6106a1600480360381019061069c919061220e565b61180d565b005b60007f087afafe000000000000000000000000000000000000000000000000000000007bffffffffffffffffffffffffffffffffffffffffffffffffffffffff1916827bffffffffffffffffffffffffffffffffffffffffffffffffffffffff1916148061071657506107158261186a565b5b9050919050565b60006060806060600080600260008881526020019081526020016000209050868160060182600301600760008b81526020019081526020016000208460070160009054906101000a900460e01b838054806020026020016040519081016040528092919081815260200182805480156107b557602002820191906000526020600020905b8154815260200190600101908083116107a1575b505050505093508280548060200260200160405190810160405280929190818152602001828054801561080757602002820191906000526020600020905b8154815260200190600101908083116107f3575b505050505092508180548060200260200160405190810160405280929190818152602001828054801561089b57602002820191906000526020600020906000905b82829054906101000a900460e01b7bffffffffffffffffffffffffffffffffffffffffffffffffffffffff1916815260200190600401906020826003010492830192600103820291508084116108485790505b50505050509150955095509550955095505091939590929450565b7f4348414e47455f484552455f524f4c455f54485245450000000000000000000081565b826002600082815260200190815260200160002060000160009054906101000a900460ff1661093e576040517f08c379a0000000000000000000000000000000000000000000000000000000008152600401610935906124d3565b60405180910390fd5b3361094c6000801b82610f54565b61098b576040517f08c379a00000000000000000000000000000000000000000000000000000000081526004016109829061253f565b60405180910390fd5b60026000868152602001908152602001600020600201600085815260200190815260200160002060009054906101000a900460ff1615610a00576040517f08c379a00000000000000000000000000000000000000000000000000000000081526004016109f7906125d1565b60405180910390fd5b600160026000878152602001908152602001600020600201600086815260200190815260200160002060006101000a81548160ff02191690831515021790555060026000868152602001908152602001600020600301849080600181540180825580915050600190039060005260206000200160009091909190915055610a8784846118e4565b505050505050565b6000610a9b8233610f54565b9050919050565b7f4348414e47455f484552455f53544154455f54574f000000000000000000000081565b6000806000838152602001908152602001600020600101549050919050565b6060600260006004548152602001908152602001600020600601805480602002602001604051908101604052809291908181526020018280548015610b4957602002820191906000526020600020905b815481526020019060010190808311610b35575b5050505050905090565b610b5c82610ac6565b610b65816119d5565b610b6f83836118e4565b50505050565b600c8181548110610b8557600080fd5b906000526020600020016000915090505481565b610ba16119e9565b73ffffffffffffffffffffffffffffffffffffffff168173ffffffffffffffffffffffffffffffffffffffff1614610c05576040517f6697b23200000000000000000000000000000000000000000000000000000000815260040160405180910390fd5b610c0f82826119f1565b505050565b600060026000600454815260200190815260200160002060000160009054906101000a900460ff16610c7b576040517f08c379a0000000000000000000000000000000000000000000000000000000008152600401610c7290612663565b60405180910390fd5b600454905090565b7f4348414e47455f484552455f524f4c455f54574f00000000000000000000000081565b7f4348414e47455f484552455f524f4c455f464f5552000000000000000000000081565b7f4348414e47455f484552455f524f4c455f4f4e4500000000000000000000000081565b6000600180549050905090565b600060038054905011610d44576040517f08c379a0000000000000000000000000000000000000000000000000000000008152600401610d3b906126f5565b60405180910390fd5b8181610d58610d51610c14565b8383611ae3565b6000600454905084600481905550600060026000838152602001908152602001600020600501905060005b8180549050811015610ded57610de08388848481548110610da757610da6612715565b5b90600052602060002090600491828204019190066008029054906101000a90048015611df1021767ffffffffffffffff1663ffffffff16565b8080600101915050610d83565b50600160405180608001604052808481526020018881526020013373ffffffffffffffffffffffffffffffffffffffff168152602001428152509080600181540180825580915050600190039060005260206000209060040201600090919091909150600082015181600001556020820151816001015560408201518160020160006101000a81548173ffffffffffffffffffffffffffffffffffffffff021916908373ffffffffffffffffffffffffffffffffffffffff1602179055506060820151816003015550507f483a31c379a4b707332853662276a3424ec44f0ccbfc20d78fd9d143694f76693383600454604051610eec93929190612744565b60405180910390a1505050505050565b6060600c805480602002602001604051908101604052809291908181526020018280548015610f4a57602002820191906000526020600020905b815481526020019060010190808311610f36575b5050505050905090565b600080600084815260200190815260200160002060000160008373ffffffffffffffffffffffffffffffffffffffff1673ffffffffffffffffffffffffffffffffffffffff16815260200190815260200160002060009054906101000a900460ff16905092915050565b6000801b81565b7f4348414e47455f484552455f53544154455f464956450000000000000000000081565b6060600380548060200260200160405190810160405280929190818152602001828054801561103757602002820191906000526020600020905b815481526020019060010190808311611023575b5050505050905090565b6001818154811061105157600080fd5b90600052602060002090600402016000915090508060000154908060010154908060020160009054906101000a900473ffffffffffffffffffffffffffffffffffffffff16908060030154905084565b7f4348414e47455f484552455f53544154455f4f4e45000000000000000000000081565b7f4348414e47455f484552455f53544154455f544852454500000000000000000081565b60008060008060008510158015611104575060018054905085105b611143576040517f08c379a000000000000000000000000000000000000000000000000000000000815260040161113a906127c7565b60405180910390fd5b6001858154811061115757611156612715565b5b9060005260206000209060040201600001546001868154811061117d5761117c612715565b5b906000526020600020906004020160010154600187815481106111a3576111a2612715565b5b906000526020600020906004020160020160009054906101000a900473ffffffffffffffffffffffffffffffffffffffff16600188815481106111e9576111e8612715565b5b90600052602060002090600402016003015493509350935093509193509193565b7f524f4c455f41444d494e0000000000000000000000000000000000000000000081565b61123782610ac6565b611240816119d5565b61124a83836119f1565b50505050565b816002600082815260200190815260200160002060000160009054906101000a900460ff166112b4576040517f08c379a00000000000000000000000000000000000000000000000000000000081526004016112ab906124d3565b60405180910390fd5b336112c26000801b82610f54565b611301576040517f08c379a00000000000000000000000000000000000000000000000000000000081526004016112f89061253f565b60405180910390fd5b60066000847bffffffffffffffffffffffffffffffffffffffffffffffffffffffff19167bffffffffffffffffffffffffffffffffffffffffffffffffffffffff1916815260200190815260200160002060009054906101000a900460ff1661141a57600160066000857bffffffffffffffffffffffffffffffffffffffffffffffffffffffff19167bffffffffffffffffffffffffffffffffffffffffffffffffffffffff1916815260200190815260200160002060006101000a81548160ff02191690831515021790555060058390806001815401808255809150506001900390600052602060002090600891828204019190066004029091909190916101000a81548163ffffffff021916908360e01c02179055505b6001600260008681526020019081526020016000206001016000857bffffffffffffffffffffffffffffffffffffffffffffffffffffffff19167bffffffffffffffffffffffffffffffffffffffffffffffffffffffff1916815260200190815260200160002060006101000a81548160ff021916908315150217905550600760008581526020019081526020016000208390806001815401808255809150506001900390600052602060002090600891828204019190066004029091909190916101000a81548163ffffffff021916908360e01c021790555050505050565b7f524f4c455f4d414e55464143545552455200000000000000000000000000000081565b7f4348414e47455f484552455f53544154455f464f55520000000000000000000081565b606061154d82611c49565b61158c576040517f08c379a000000000000000000000000000000000000000000000000000000000815260040161158390612859565b60405180910390fd5b6000600b600084815260200190815260200160002080546115ac906128a8565b80601f01602080910402602001604051908101604052809291908181526020018280546115d8906128a8565b80156116255780601f106115fa57610100808354040283529160200191611625565b820191906000526020600020905b81548152906001019060200180831161160857829003601f168201915b505050505090506000600a805461163b906128a8565b90500361164b5780915050611672565b600a8160405160200161165f9291906129ad565b6040516020818303038152906040529150505b919050565b816002600082815260200190815260200160002060000160009054906101000a900460ff166116db576040517f08c379a00000000000000000000000000000000000000000000000000000000081526004016116d2906124d3565b60405180910390fd5b816002600082815260200190815260200160002060000160009054906101000a900460ff1661173f576040517f08c379a0000000000000000000000000000000000000000000000000000000008152600401611736906124d3565b60405180910390fd5b3361174d6000801b82610f54565b61178c576040517f08c379a00000000000000000000000000000000000000000000000000000000081526004016117839061253f565b60405180910390fd5b60026000868152602001908152602001600020600601849080600181540180825580915050600190039060005260206000200160009091909190915055600160086000878152602001908152602001600020600086815260200190815260200160002060006101000a81548160ff0219169083151502179055505050505050565b3361181b6000801b82610f54565b61185a576040517f08c379a00000000000000000000000000000000000000000000000000000000081526004016118519061253f565b60405180910390fd5b61186483836118e4565b50505050565b60007f7965db0b000000000000000000000000000000000000000000000000000000007bffffffffffffffffffffffffffffffffffffffffffffffffffffffff1916827bffffffffffffffffffffffffffffffffffffffffffffffffffffffff191614806118dd57506118dc82611c65565b5b9050919050565b60006118f08383610f54565b6119ca57600160008085815260200190815260200160002060000160008473ffffffffffffffffffffffffffffffffffffffff1673ffffffffffffffffffffffffffffffffffffffff16815260200190815260200160002060006101000a81548160ff0219169083151502179055506119676119e9565b73ffffffffffffffffffffffffffffffffffffffff168273ffffffffffffffffffffffffffffffffffffffff16847f2f8788117e7eff1d82e926ec794901d17c78024a50270940304540a733656f0d60405160405180910390a4600190506119cf565b600090505b92915050565b6119e6816119e16119e9565b611ccf565b50565b600033905090565b60006119fd8383610f54565b15611ad857600080600085815260200190815260200160002060000160008473ffffffffffffffffffffffffffffffffffffffff1673ffffffffffffffffffffffffffffffffffffffff16815260200190815260200160002060006101000a81548160ff021916908315150217905550611a756119e9565b73ffffffffffffffffffffffffffffffffffffffff168273ffffffffffffffffffffffffffffffffffffffff16847ff6391f5c32d9c69d2a47ea670b442974b53935d1edc7fd64eb21e047a839171b60405160405180910390a460019050611add565b600090505b92915050565b6002600084815260200190815260200160002060000160009054906101000a900460ff16611b46576040517f08c379a0000000000000000000000000000000000000000000000000000000008152600401611b3d90612a43565b60405180910390fd5b6002600083815260200190815260200160002060000160009054906101000a900460ff16611ba9576040517f08c379a0000000000000000000000000000000000000000000000000000000008152600401611ba090612ad5565b60405180910390fd5b611bb38383611d20565b611bf2576040517f08c379a0000000000000000000000000000000000000000000000000000000008152600401611be990612b41565b60405180910390fd5b611bfb81610a8f565b611c3a576040517f08c379a0000000000000000000000000000000000000000000000000000000008152600401611c3190612bd3565b60405180910390fd5b611c448383611d64565b505050565b60008060095414158015611c5e575060095482145b9050919050565b60007f01ffc9a7000000000000000000000000000000000000000000000000000000007bffffffffffffffffffffffffffffffffffffffffffffffffffffffff1916827bffffffffffffffffffffffffffffffffffffffffffffffffffffffff1916149050919050565b611cd98282610f54565b611d1c5780826040517fe2517d3f000000000000000000000000000000000000000000000000000000008152600401611d13929190612bf3565b60405180910390fd5b5050565b600060086000848152602001908152602001600020600083815260200190815260200160002060009054906101000a900460ff1615611d5e57600190505b92915050565b600060026000838152602001908152602001600020600401905060005b8180549050811015611deb57611dde8484848481548110611da557611da4612715565b5b90600052602060002090600491828204019190066008029054906101000a90048015611df1021767ffffffffffffffff1663ffffffff16565b8080600101915050611d81565b50505050565b611df9612c1c565b565b600080fd5b60007fffffffff0000000000000000000000000000000000000000000000000000000082169050919050565b611e3581611e00565b8114611e4057600080fd5b50565b600081359050611e5281611e2c565b92915050565b600060208284031215611e6e57611e6d611dfb565b5b6000611e7c84828501611e43565b91505092915050565b60008115159050919050565b611e9a81611e85565b82525050565b6000602082019050611eb56000830184611e91565b92915050565b6000819050919050565b611ece81611ebb565b8114611ed957600080fd5b50565b600081359050611eeb81611ec5565b92915050565b600060208284031215611f0757611f06611dfb565b5b6000611f1584828501611edc565b91505092915050565b611f2781611ebb565b82525050565b600081519050919050565b600082825260208201905092915050565b6000819050602082019050919050565b611f6281611ebb565b82525050565b6000611f748383611f59565b60208301905092915050565b6000602082019050919050565b6000611f9882611f2d565b611fa28185611f38565b9350611fad83611f49565b8060005b83811015611fde578151611fc58882611f68565b9750611fd083611f80565b925050600181019050611fb1565b5085935050505092915050565b600081519050919050565b600082825260208201905092915050565b6000819050602082019050919050565b61202081611e00565b82525050565b60006120328383612017565b60208301905092915050565b6000602082019050919050565b600061205682611feb565b6120608185611ff6565b935061206b83612007565b8060005b8381101561209c5781516120838882612026565b975061208e8361203e565b92505060018101905061206f565b5085935050505092915050565b6120b281611e00565b82525050565b600060a0820190506120cd6000830188611f1e565b81810360208301526120df8187611f8d565b905081810360408301526120f38186611f8d565b90508181036060830152612107818561204b565b905061211660808301846120a9565b9695505050505050565b60006020820190506121356000830184611f1e565b92915050565b600073ffffffffffffffffffffffffffffffffffffffff82169050919050565b60006121668261213b565b9050919050565b6121768161215b565b811461218157600080fd5b50565b6000813590506121938161216d565b92915050565b6000806000606084860312156121b2576121b1611dfb565b5b60006121c086828701611edc565b93505060206121d186828701611edc565b92505060406121e286828701612184565b9150509250925092565b600060208201905081810360008301526122068184611f8d565b905092915050565b6000806040838503121561222557612224611dfb565b5b600061223385828601611edc565b925050602061224485828601612184565b9150509250929050565b6000819050919050565b6122618161224e565b811461226c57600080fd5b50565b60008135905061227e81612258565b92915050565b60006020828403121561229a57612299611dfb565b5b60006122a88482850161226f565b91505092915050565b6122ba8161224e565b82525050565b60006020820190506122d560008301846122b1565b92915050565b600080604083850312156122f2576122f1611dfb565b5b600061230085828601611edc565b925050602061231185828601611edc565b9150509250929050565b6123248161215b565b82525050565b600060808201905061233f6000830187611f1e565b61234c6020830186611f1e565b612359604083018561231b565b61236660608301846122b1565b95945050505050565b6000806040838503121561238657612385611dfb565b5b600061239485828601611edc565b92505060206123a585828601611e43565b9150509250929050565b600081519050919050565b600082825260208201905092915050565b60005b838110156123e95780820151818401526020810190506123ce565b60008484015250505050565b6000601f19601f8301169050919050565b6000612411826123af565b61241b81856123ba565b935061242b8185602086016123cb565b612434816123f5565b840191505092915050565b600060208201905081810360008301526124598184612406565b905092915050565b7f74686520737461746520686173206e6f74206265656e2063726561746564207960008201527f6574000000000000000000000000000000000000000000000000000000000000602082015250565b60006124bd6022836123ba565b91506124c882612461565b604082019050919050565b600060208201905081810360008301526124ec816124b0565b9050919050565b7f43616c6c6572206973206e6f7420616e2061646d696e00000000000000000000600082015250565b60006125296016836123ba565b9150612534826124f3565b602082019050919050565b600060208201905081810360008301526125588161251c565b9050919050565b7f74686520726f6c6520686173206265656e20616c72656164792061646465642060008201527f6174207468697320737461746500000000000000000000000000000000000000602082015250565b60006125bb602d836123ba565b91506125c68261255f565b604082019050919050565b600060208201905081810360008301526125ea816125ae565b9050919050565b7f74686520696e697469616c20737461746520686173206e6f74206265656e206360008201527f7265617465642079657400000000000000000000000000000000000000000000602082015250565b600061264d602a836123ba565b9150612658826125f1565b604082019050919050565b6000602082019050818103600083015261267c81612640565b9050919050565b7f746869732073746174656d616368696e6520686173206e6f74206265656e207360008201527f6574757020796574000000000000000000000000000000000000000000000000602082015250565b60006126df6028836123ba565b91506126ea82612683565b604082019050919050565b6000602082019050818103600083015261270e816126d2565b9050919050565b7f4e487b7100000000000000000000000000000000000000000000000000000000600052603260045260246000fd5b6000606082019050612759600083018661231b565b6127666020830185611f1e565b6127736040830184611f1e565b949350505050565b7f496e646578206f7574206f6620626f756e647300000000000000000000000000600082015250565b60006127b16013836123ba565b91506127bc8261277b565b602082019050919050565b600060208201905081810360008301526127e0816127a4565b9050919050565b7f53746174654d616368696e654d657461646174613a205552492071756572792060008201527f666f72206e6f6e6578697374656e7420656e7469747900000000000000000000602082015250565b60006128436036836123ba565b915061284e826127e7565b604082019050919050565b6000602082019050818103600083015261287281612836565b9050919050565b7f4e487b7100000000000000000000000000000000000000000000000000000000600052602260045260246000fd5b600060028204905060018216806128c057607f821691505b6020821081036128d3576128d2612879565b5b50919050565b600081905092915050565b60008190508160005260206000209050919050565b60008154612906816128a8565b61291081866128d9565b9450600182166000811461292b576001811461294057612973565b60ff1983168652811515820286019350612973565b612949856128e4565b60005b8381101561296b5781548189015260018201915060208101905061294c565b838801955050505b50505092915050565b6000612987826123af565b61299181856128d9565b93506129a18185602086016123cb565b80840191505092915050565b60006129b982856128f9565b91506129c5828461297c565b91508190509392505050565b7f7468652066726f6d20737461746520686173206e6f74206265656e20636f6e6660008201527f69677572656420696e2074686973206f626a6563740000000000000000000000602082015250565b6000612a2d6035836123ba565b9150612a38826129d1565b604082019050919050565b60006020820190508181036000830152612a5c81612a20565b9050919050565b7f74686520746f20737461746520686173206e6f74206265656e20636f6e66696760008201527f7572656420696e2074686973206f626a65637400000000000000000000000000602082015250565b6000612abf6033836123ba565b9150612aca82612a63565b604082019050919050565b60006020820190508181036000830152612aee81612ab2565b9050919050565b7f54686973207472616e736974696f6e206973206e6f7420616c6c6f7765640000600082015250565b6000612b2b601e836123ba565b9150612b3682612af5565b602082019050919050565b60006020820190508181036000830152612b5a81612b1e565b9050919050565b7f7468652073656e646572206f662074686973207472616e73616374696f6e206360008201527f616e6e6f7420706572666f726d2074686973207472616e736974696f6e000000602082015250565b6000612bbd603d836123ba565b9150612bc882612b61565b604082019050919050565b60006020820190508181036000830152612bec81612bb0565b9050919050565b6000604082019050612c08600083018561231b565b612c156020830184611f1e565b9392505050565b7f4e487b7100000000000000000000000000000000000000000000000000000000600052605160045260246000fdfea264697066735822122012ec88c5f88966ccd29c8e795545e2ada80ea4a1304871a5cf7bb83c07c126f064736f6c63430008180033",
  "linkReferences": {},
  "deployedLinkReferences": {}
}